{
  "_format": "hh-sol-artifact-1",
  "contractName": "Contract",
  "sourceName": "contracts/Contract.sol",
  "abi": [
    {
      "inputs": [
        {
          "internalType": "address",
          "name": "contractWinner",
          "type": "address"
        }
      ],
      "name": "callAttempt",
      "outputs": [],
      "stateMutability": "nonpayable",
      "type": "function"
    }
  ],
  "bytecode": "0x608060405234801561001057600080fd5b5061029d806100206000396000f3fe608060405234801561001057600080fd5b506004361061002b5760003560e01c8063dab4d31114610030575b600080fd5b61004a60048036038101906100459190610164565b61004c565b005b60006040516024016040516020818303038152906040527f732b7a8d000000000000000000000000000000000000000000000000000000007bffffffffffffffffffffffffffffffffffffffffffffffffffffffff19166020820180517bffffffffffffffffffffffffffffffffffffffffffffffffffffffff8381831617835250505050905060008273ffffffffffffffffffffffffffffffffffffffff16826040516100fa91906101be565b6000604051808303816000865af19150503d8060008114610137576040519150601f19603f3d011682016040523d82523d6000602084013e61013c565b606091505b505090508061014a57600080fd5b505050565b60008135905061015e81610250565b92915050565b60006020828403121561017657600080fd5b60006101848482850161014f565b91505092915050565b6000610198826101d5565b6101a281856101e0565b93506101b281856020860161021d565b80840191505092915050565b60006101ca828461018d565b915081905092915050565b600081519050919050565b600081905092915050565b60006101f6826101fd565b9050919050565b600073ffffffffffffffffffffffffffffffffffffffff82169050919050565b60005b8381101561023b578082015181840152602081019050610220565b8381111561024a576000848401525b50505050565b610259816101eb565b811461026457600080fd5b5056fea26469706673582212206fdce4329236e01df5c9d394d2213e706da30f241d95166881a94c04d33fb29964736f6c63430008040033",
  "linkReferences": {},
  "deployedLinkReferences": {}
}