{
  "_format": "hh-sol-artifact-1",
  "contractName": "Winners",
  "sourceName": "contracts/Winner.sol",
  "abi": [
    {
      "anonymous": false,
      "inputs": [
        {
          "indexed": false,
          "internalType": "address",
          "name": "",
          "type": "address"
        }
      ],
      "name": "Winner",
      "type": "event"
    },
    {
      "inputs": [],
      "name": "attempt",
      "outputs": [],
      "stateMutability": "nonpayable",
      "type": "function"
    }
  ],
  "bytecode": "0x608060405234801561001057600080fd5b506101f1806100206000396000f3fe608060405234801561001057600080fd5b506004361061002b5760003560e01c8063732b7a8d14610030575b600080fd5b61003861003a565b005b3273ffffffffffffffffffffffffffffffffffffffff163373ffffffffffffffffffffffffffffffffffffffff1614156100a9576040517f08c379a00000000000000000000000000000000000000000000000000000000081526004016100a09061012f565b60405180910390fd5b7f745c90b656b4aafe296c8ca35aeacfe56cb96c90e1d320e5da643fff1051b6c0336040516100d89190610114565b60405180910390a1565b6100eb81610160565b82525050565b60006100fe60208361014f565b915061010982610192565b602082019050919050565b600060208201905061012960008301846100e2565b92915050565b60006020820190508181036000830152610148816100f1565b9050919050565b600082825260208201905092915050565b600061016b82610172565b9050919050565b600073ffffffffffffffffffffffffffffffffffffffff82169050919050565b7f6d73672e73656e64657220697320657175616c20746f2074782e6f726967696e60008201525056fea2646970667358221220f443f154146c6e999ee66e4b719401fd102b7984585097735ca25284b5bbd08f64736f6c63430008040033",
  "linkReferences": {},
  "deployedLinkReferences": {}
}